{
  "contractName": "Mtama2",
  "abi": [
    {
      "inputs": [],
      "payable": false,
      "stateMutability": "nonpayable",
      "type": "constructor",
      "signature": "constructor"
    },
    {
      "anonymous": false,
      "inputs": [
        {
          "indexed": false,
          "name": "deployer",
          "type": "address"
        },
        {
          "indexed": false,
          "name": "message",
          "type": "string"
        }
      ],
      "name": "contractDeployed",
      "type": "event",
      "signature": "0xa721019a25b4a7114d0285549567987bd3a022efd88bfb4aaadb39a71b3b7a32"
    },
    {
      "anonymous": false,
      "inputs": [
        {
          "indexed": false,
          "name": "depositor",
          "type": "address"
        },
        {
          "indexed": false,
          "name": "receiver",
          "type": "address"
        },
        {
          "indexed": false,
          "name": "amount",
          "type": "uint256"
        }
      ],
      "name": "escrowStarted",
      "type": "event",
      "signature": "0x4bc7757109b2f52c3e84faf14810898efffd1f7f6f6fbe71ebb4ad0ab8ee43ab"
    },
    {
      "anonymous": false,
      "inputs": [
        {
          "indexed": false,
          "name": "depositor",
          "type": "address"
        },
        {
          "indexed": false,
          "name": "receiver",
          "type": "address"
        },
        {
          "indexed": false,
          "name": "amount",
          "type": "uint256"
        }
      ],
      "name": "escrowReleased",
      "type": "event",
      "signature": "0xd9a9e142df13b888b65d37a03135cfa451de5d980b504dd2a5ec70d929018e98"
    },
    {
      "anonymous": false,
      "inputs": [
        {
          "indexed": false,
          "name": "depositor",
          "type": "address"
        },
        {
          "indexed": false,
          "name": "amount",
          "type": "uint256"
        }
      ],
      "name": "claimRefund",
      "type": "event",
      "signature": "0xb97de68fbec7f39f02c1f23e4ce98e78f409e8a9b1984ec6b794f0db1e55d540"
    },
    {
      "constant": true,
      "inputs": [],
      "name": "hello",
      "outputs": [
        {
          "name": "",
          "type": "uint256"
        }
      ],
      "payable": false,
      "stateMutability": "view",
      "type": "function",
      "signature": "0x19ff1d21"
    },
    {
      "constant": false,
      "inputs": [
        {
          "name": "_guid",
          "type": "string"
        },
        {
          "name": "_to",
          "type": "address"
        }
      ],
      "name": "startEscrow",
      "outputs": [],
      "payable": true,
      "stateMutability": "payable",
      "type": "function",
      "signature": "0x1a643928"
    },
    {
      "constant": false,
      "inputs": [
        {
          "name": "_guid",
          "type": "string"
        },
        {
          "name": "_isRefund",
          "type": "bool"
        }
      ],
      "name": "releaseEscrow",
      "outputs": [],
      "payable": false,
      "stateMutability": "nonpayable",
      "type": "function",
      "signature": "0xe3c90510"
    }
  ],
  "bytecode": "0x608060405234801561001057600080fd5b50336000806101000a81548173ffffffffffffffffffffffffffffffffffffffff021916908373ffffffffffffffffffffffffffffffffffffffff1602179055507fa721019a25b4a7114d0285549567987bd3a022efd88bfb4aaadb39a71b3b7a326000809054906101000a900473ffffffffffffffffffffffffffffffffffffffff16604051808273ffffffffffffffffffffffffffffffffffffffff1673ffffffffffffffffffffffffffffffffffffffff168152602001806020018281038252601e8152602001807f4d74616d6120457363726f7720436f6e7472616374204465706c6f79656400008152506020019250505060405180910390a1610d9e8061011d6000396000f300608060405260043610610057576000357c0100000000000000000000000000000000000000000000000000000000900463ffffffff16806319ff1d211461005c5780631a64392814610087578063e3c9051014610103575b600080fd5b34801561006857600080fd5b50610071610178565b6040518082815260200191505060405180910390f35b610101600480360381019080803590602001908201803590602001908080601f0160208091040260200160405190810160405280939291908181526020018383808284378201915050505050509192919290803573ffffffffffffffffffffffffffffffffffffffff169060200190929190505050610181565b005b34801561010f57600080fd5b50610176600480360381019080803590602001908201803590602001908080601f016020809104026020016040519081016040528093929190818152602001838380828437820191505050505050919291929080351515906020019092919050505061057b565b005b60006064905090565b610189610d24565b600073ffffffffffffffffffffffffffffffffffffffff168273ffffffffffffffffffffffffffffffffffffffff161415151561022e576040517f08c379a00000000000000000000000000000000000000000000000000000000081526004018080602001828103825260168152602001807f5265636569766572204164647265737320456d7074790000000000000000000081525060200191505060405180910390fd5b600073ffffffffffffffffffffffffffffffffffffffff166001846040518082805190602001908083835b60208310151561027e5780518252602082019150602081019050602083039250610259565b6001836020036101000a038019825116818451168082178552505050505050905001915050908152602001604051809103902060000160009054906101000a900473ffffffffffffffffffffffffffffffffffffffff1673ffffffffffffffffffffffffffffffffffffffff16141515610386576040517f08c379a00000000000000000000000000000000000000000000000000000000081526004018080602001828103825260338152602001807f5374617274457363726f773a20457363726f772077697468207468652073616d81526020017f6520696420616c7265616479206578697374730000000000000000000000000081525060400191505060405180910390fd5b6060604051908101604052803373ffffffffffffffffffffffffffffffffffffffff1681526020018373ffffffffffffffffffffffffffffffffffffffff168152602001348152509050806001846040518082805190602001908083835b60208310151561040957805182526020820191506020810190506020830392506103e4565b6001836020036101000a038019825116818451168082178552505050505050905001915050908152602001604051809103902060008201518160000160006101000a81548173ffffffffffffffffffffffffffffffffffffffff021916908373ffffffffffffffffffffffffffffffffffffffff16021790555060208201518160010160006101000a81548173ffffffffffffffffffffffffffffffffffffffff021916908373ffffffffffffffffffffffffffffffffffffffff160217905550604082015181600201559050507f4bc7757109b2f52c3e84faf14810898efffd1f7f6f6fbe71ebb4ad0ab8ee43ab338334604051808473ffffffffffffffffffffffffffffffffffffffff1673ffffffffffffffffffffffffffffffffffffffff1681526020018373ffffffffffffffffffffffffffffffffffffffff1673ffffffffffffffffffffffffffffffffffffffff168152602001828152602001935050505060405180910390a1505050565b610583610d24565b3373ffffffffffffffffffffffffffffffffffffffff166000809054906101000a900473ffffffffffffffffffffffffffffffffffffffff1673ffffffffffffffffffffffffffffffffffffffff1614151561066d576040517f08c379a00000000000000000000000000000000000000000000000000000000081526004018080602001828103825260368152602001807f52656c65617365457363726f773a204f6e6c7920636f6e7472616374206f776e81526020017f6572732063616e2072656c6561736520657363726f770000000000000000000081525060400191505060405180910390fd5b600073ffffffffffffffffffffffffffffffffffffffff166001846040518082805190602001908083835b6020831015156106bd5780518252602082019150602081019050602083039250610698565b6001836020036101000a038019825116818451168082178552505050505050905001915050908152602001604051809103902060000160009054906101000a900473ffffffffffffffffffffffffffffffffffffffff1673ffffffffffffffffffffffffffffffffffffffff16141515156107c6576040517f08c379a00000000000000000000000000000000000000000000000000000000081526004018080602001828103825260278152602001807f52656c65617365457363726f773a20457363726f77204465706f736974206e6f81526020017f7420666f756e640000000000000000000000000000000000000000000000000081525060400191505060405180910390fd5b6001836040518082805190602001908083835b6020831015156107fe57805182526020820191506020810190506020830392506107d9565b6001836020036101000a0380198251168184511680821785525050505050509050019150509081526020016040518091039020606060405190810160405290816000820160009054906101000a900473ffffffffffffffffffffffffffffffffffffffff1673ffffffffffffffffffffffffffffffffffffffff1673ffffffffffffffffffffffffffffffffffffffff1681526020016001820160009054906101000a900473ffffffffffffffffffffffffffffffffffffffff1673ffffffffffffffffffffffffffffffffffffffff1673ffffffffffffffffffffffffffffffffffffffff1681526020016002820154815250509050600073ffffffffffffffffffffffffffffffffffffffff16816000015173ffffffffffffffffffffffffffffffffffffffff16141515156109c4576040517f08c379a00000000000000000000000000000000000000000000000000000000081526004018080602001828103825260268152602001807f52656c65617365457363726f773a2053656e646572206164647265737320697381526020017f20656d707479000000000000000000000000000000000000000000000000000081525060400191505060405180910390fd5b600073ffffffffffffffffffffffffffffffffffffffff16816020015173ffffffffffffffffffffffffffffffffffffffff1614151515610a93576040517f08c379a00000000000000000000000000000000000000000000000000000000081526004018080602001828103825260288152602001807f52656c65617365457363726f773a20526563656976657220616464726573732081526020017f697320656d70747900000000000000000000000000000000000000000000000081525060400191505060405180910390fd5b8115610b6057806000015173ffffffffffffffffffffffffffffffffffffffff166108fc82604001519081150290604051600060405180830381858888f19350505050158015610ae7573d6000803e3d6000fd5b507fb97de68fbec7f39f02c1f23e4ce98e78f409e8a9b1984ec6b794f0db1e55d54081600001518260400151604051808373ffffffffffffffffffffffffffffffffffffffff1673ffffffffffffffffffffffffffffffffffffffff1681526020018281526020019250505060405180910390a1610c5b565b806020015173ffffffffffffffffffffffffffffffffffffffff166108fc82604001519081150290604051600060405180830381858888f19350505050158015610bae573d6000803e3d6000fd5b507fd9a9e142df13b888b65d37a03135cfa451de5d980b504dd2a5ec70d929018e98816000015182602001518360400151604051808473ffffffffffffffffffffffffffffffffffffffff1673ffffffffffffffffffffffffffffffffffffffff1681526020018373ffffffffffffffffffffffffffffffffffffffff1673ffffffffffffffffffffffffffffffffffffffff168152602001828152602001935050505060405180910390a15b6001836040518082805190602001908083835b602083101515610c935780518252602082019150602081019050602083039250610c6e565b6001836020036101000a0380198251168184511680821785525050505050509050019150509081526020016040518091039020600080820160006101000a81549073ffffffffffffffffffffffffffffffffffffffff02191690556001820160006101000a81549073ffffffffffffffffffffffffffffffffffffffff021916905560028201600090555050505050565b606060405190810160405280600073ffffffffffffffffffffffffffffffffffffffff168152602001600073ffffffffffffffffffffffffffffffffffffffff1681526020016000815250905600a165627a7a72305820c24e0b3c8c9413aac63f5fe0d27b25048ef827e9899879b5223de72b23f9e68d0029",
  "source": "pragma solidity ^0.4.24;\r\n\r\ncontract Mtama2 {\r\n\r\n    //only contract owner should be able to mint tokens.\r\n    address contractOwner;\r\n\r\n    struct Deposit {\r\n        address sender;\r\n        address receiver;\r\n        uint256 amount;\r\n    }\r\n\r\n    mapping (string => Deposit) deposits; //guid identifier generated from the front-end.\r\n    \r\n    //contract deployment event. Called only once\r\n    event contractDeployed(address deployer, string message);\r\n    //get notified when a deposit is done\r\n    event escrowStarted(address depositor, address receiver, uint256 amount);\r\n    //get notified when a verification is done\r\n    event escrowReleased(address depositor, address receiver, uint256 amount);\r\n    //get notified when money is sent back to payor\r\n    event claimRefund(address depositor, uint256 amount);\r\n    \r\n    constructor() public {\r\n        contractOwner = msg.sender;\r\n        \r\n        emit contractDeployed(contractOwner, \"Mtama Escrow Contract Deployed\");        \r\n    }\r\n    \r\n    function hello() public view returns(uint) {\r\n        return 100;\r\n    }\r\n\r\n    function startEscrow(string memory _guid, address _to) public payable  {\r\n        require(_to != address(0), \"Receiver Address Empty\");\r\n        require (deposits[_guid].sender == address(0), \"StartEscrow: Escrow with the same id already exists\");\r\n\r\n        Deposit memory _dep = Deposit({\r\n            sender: msg.sender,\r\n            receiver: _to,\r\n            amount: msg.value \r\n        });\r\n        deposits[_guid] = _dep;\r\n        \r\n        emit escrowStarted(msg.sender, _to, msg.value);\r\n    }\r\n\r\n    function releaseEscrow(string memory _guid, bool _isRefund) public {\r\n        require (contractOwner == msg.sender, \"ReleaseEscrow: Only contract owners can release escrow\");\r\n        require (deposits[_guid].sender != address(0), \"ReleaseEscrow: Escrow Deposit not found\");\r\n\r\n\r\n        Deposit memory _dep = deposits[_guid];\r\n        require(_dep.sender != address(0), \"ReleaseEscrow: Sender address is empty\");\r\n        require(_dep.receiver != address(0), \"ReleaseEscrow: Receiver address is empty\");\r\n\r\n        if(_isRefund) {\r\n            _dep.sender.transfer(_dep.amount);\r\n            emit claimRefund(_dep.sender, _dep.amount);\r\n        } else {\r\n            _dep.receiver.transfer(_dep.amount);\r\n            emit escrowReleased(_dep.sender, _dep.receiver, _dep.amount);\r\n        }\r\n        \r\n        delete deposits[_guid];\r\n    }\r\n    \r\n}",
  "sourcePath": "C:/WORK/Projects/AlliedBlock/Mtama/Code/poc_repo/SmartContract/contracts/Mtama2.sol",
  "compiler": {
    "name": "solc",
    "version": "0.4.24+commit.e67f0147.Emscripten.clang"
  },
  "schemaVersion": "3.0.1",
  "updatedAt": "2019-02-21T18:55:27.834Z",
  "devdoc": {
    "methods": {}
  },
  "userdoc": {
    "methods": {}
  }
}